{
  "contractName": "abcd",
  "abi": [
    {
      "constant": true,
      "inputs": [],
      "name": "date_invented",
      "outputs": [
        {
          "internalType": "string",
          "name": "",
          "type": "string"
        }
      ],
      "payable": false,
      "stateMutability": "view",
      "type": "function"
    },
    {
      "constant": true,
      "inputs": [],
      "name": "decimal",
      "outputs": [
        {
          "internalType": "uint8",
          "name": "",
          "type": "uint8"
        }
      ],
      "payable": false,
      "stateMutability": "view",
      "type": "function"
    },
    {
      "constant": true,
      "inputs": [],
      "name": "name",
      "outputs": [
        {
          "internalType": "string",
          "name": "",
          "type": "string"
        }
      ],
      "payable": false,
      "stateMutability": "view",
      "type": "function"
    },
    {
      "constant": true,
      "inputs": [],
      "name": "symbol",
      "outputs": [
        {
          "internalType": "string",
          "name": "",
          "type": "string"
        }
      ],
      "payable": false,
      "stateMutability": "view",
      "type": "function"
    },
    {
      "constant": true,
      "inputs": [],
      "name": "totalSupply",
      "outputs": [
        {
          "internalType": "uint256",
          "name": "",
          "type": "uint256"
        }
      ],
      "payable": false,
      "stateMutability": "view",
      "type": "function"
    }
  ],
  "bytecode": "0x60806040526040518060400160405280600481526020017f61626364000000000000000000000000000000000000000000000000000000008152506000908051906020019061004f92919061011f565b506040518060400160405280600281526020017f41420000000000000000000000000000000000000000000000000000000000008152506001908051906020019061009b92919061011f565b506402540be400600255600a600360006101000a81548160ff021916908360ff1602179055506040518060400160405280600a81526020017f30312d30312d32303031000000000000000000000000000000000000000000008152506004908051906020019061010c92919061011f565b5034801561011957600080fd5b506101c4565b828054600181600116156101000203166002900490600052602060002090601f016020900481019282601f1061016057805160ff191683800117855561018e565b8280016001018555821561018e579182015b8281111561018d578251825591602001919060010190610172565b5b50905061019b919061019f565b5090565b6101c191905b808211156101bd5760008160009055506001016101a5565b5090565b90565b61044f806101d36000396000f3fe608060405234801561001057600080fd5b50600436106100575760003560e01c806306fdde031461005c57806308bac4b8146100df57806318160ddd1461016257806376809ce31461018057806395d89b41146101a4575b600080fd5b610064610227565b6040518080602001828103825283818151815260200191508051906020019080838360005b838110156100a4578082015181840152602081019050610089565b50505050905090810190601f1680156100d15780820380516001836020036101000a031916815260200191505b509250505060405180910390f35b6100e76102c5565b6040518080602001828103825283818151815260200191508051906020019080838360005b8381101561012757808201518184015260208101905061010c565b50505050905090810190601f1680156101545780820380516001836020036101000a031916815260200191505b509250505060405180910390f35b61016a610363565b6040518082815260200191505060405180910390f35b610188610369565b604051808260ff1660ff16815260200191505060405180910390f35b6101ac61037c565b6040518080602001828103825283818151815260200191508051906020019080838360005b838110156101ec5780820151818401526020810190506101d1565b50505050905090810190601f1680156102195780820380516001836020036101000a031916815260200191505b509250505060405180910390f35b60008054600181600116156101000203166002900480601f0160208091040260200160405190810160405280929190818152602001828054600181600116156101000203166002900480156102bd5780601f10610292576101008083540402835291602001916102bd565b820191906000526020600020905b8154815290600101906020018083116102a057829003601f168201915b505050505081565b60048054600181600116156101000203166002900480601f01602080910402602001604051908101604052809291908181526020018280546001816001161561010002031660029004801561035b5780601f106103305761010080835404028352916020019161035b565b820191906000526020600020905b81548152906001019060200180831161033e57829003601f168201915b505050505081565b60025481565b600360009054906101000a900460ff1681565b60018054600181600116156101000203166002900480601f0160208091040260200160405190810160405280929190818152602001828054600181600116156101000203166002900480156104125780601f106103e757610100808354040283529160200191610412565b820191906000526020600020905b8154815290600101906020018083116103f557829003601f168201915b50505050508156fea265627a7a72315820a6186010fa4a0eaf8dc1b45ec99372bb8fc3f2ec4b4b22679f43e6382c362c9f64736f6c63430005110032",
  "source": "pragma solidity ^0.5.0;\n\ncontract abcd {\n    string public name = 'abcd';\n    string public symbol = 'AB';\n    uint256 public totalSupply = 10000000000;\n    uint8 public decimal = 10;\n    string public date_invented = '01-01-2001';\n}",
  "sourcePath": "/Users/rahulginodia/Desktop/App/App/src/contracts/abcd.sol",
  "compiler": {
    "name": "solc",
    "version": "0.5.17+commit.d19bba13.Emscripten.clang"
  },
  "schemaVersion": "3.4.3",
  "updatedAt": "2022-01-08T10:56:11.089Z",
  "networkType": "ethereum",
  "devdoc": {
    "methods": {}
  },
  "userdoc": {
    "methods": {}
  }
}